:0300000002006F8C
:0C006F00787FE4F6D8FD758107020003DD
:0B007B000000007F0B7EBEDEFEDFFCFD
:010086002257
:10004E00AD07AC06ED1DAE0470011C4E600512002E
:04005E007B80F12290
:0D00620075B10375B20C75C92075CA102266
:10000300E4FB120062D2CCC2B3C2B230CD08D2B389
:10001300D2B2C2CC802C20B00330B11E30B006D295
:10002300B3C2B28004C2B3D2B20BEBD394057480D3
:100033009480400EB2CCE4FB8008C2B3C2B2D2CCEF
:0B004300E4FB7F147E0012004E80C022
:00000001FF
